S00D00006C61625F372E7372656352
S11300000C94FE000C940E010C940E010C940E0141
S11300100C940E010C940E010C940E010C940E0120
S11300200C940E010C940E010C940E010C940E0110
S11300300C940E010C940E010C940E010C940E0100
S11300400C940E010C940E010C940E010C940E01F0
S11300500C940E010C940E010C940E010C940E01E0
S11300600C940E010C940E010C940E010C940E01D0
S11300700C940E010C940E010C940E010C940E01C0
S11300800C940E010C940E010C940E010C940E01B0
S11300900C940E010C940E010C940E010C940E01A0
S11300A00C940E010C940E010C940E010C940E0190
S11300B00C940E010C940E010C940E010C940E0180
S11300C00C940E010C940E010C940E010C940E0170
S11300D00C940E010C940E010C940E010C940E0160
S11300E00C940E010C940E010C940E010C940E0150
S11300F00C940E010C940E010C940E010C940E0140
S11301000C940E010C940E010C940E010C940E012F
S11301100C940E010C940E010C940E010C940E011F
S11301200C940E010C940E010C940E010C940E010F
S11301300C940E010C940E010C940E010C940E01FF
S11301400C940E010C940E010C940E010C940E01EF
S11301500C940E010C940E010C940E010C940E01DF
S11301600C940E010C940E010C940E010C940E01CF
S11301700C940E010C940E010C940E010C940E01BF
S11301800C940E010C940E010C940E010C940E01AF
S11301900C940E010C940E010C940E010C940E019F
S11301A00C940E010C940E010C940E010C940E018F
S11301B00C940E010C940E010C940E010C940E017F
S11301C00C940E010C940E010C940E010C940E016F
S11301D00C940E010C940E010C940E010C940E015F
S11301E00C940E010C940E010C940E010C940E014F
S11301F00C940E010C940E010C940E0111241FBEDC
S1130200CFEFCDBFDFE3DEBF00E00CBF18BE19BEE9
S11302101ABE1BBE0E9410010C94E6010C9400004F
S1130220CF93DF93CDB7DEB72897CDBFDEBF19825A
S11302301A821B821C821D821E821F8218860E94C3
S113024066010E94A00180E092E020E032E0F90122
S113025020A12068FC0120A3000080E092E0FC01C2
S113026023A183E292E0FC01808182238823A9F305
S113027080E092E0FC0185A1882F90E09695982F6C
S113028088279795879589839A8380E092E0FC017B
S113029084A1882F90E08B839C8329813A818B8170
S11302A09C81822B932B8F83988780E092E0FC01C2
S11302B085A18D8380E092E0FC0184A18E838E81F0
S11302C00E94CB018D810E94CB01BDCFCF93DF93E0
S11302D0CDB7DEB780E096E022E4FC01228380E023
S11302E092E020E1FC01218380E092E020E2FC0125
S11302F0228380E092E02BE0FC0120A380E092E0E6
S113030022E1FC0121A380E092E02CE032E0F9013B
S11303102081FC01248780E092E02DE032E0F901A5
S11303202081FC01258780E092E020E032E0F901A1
S113033020812160FC0120830000DF91CF9108958A
S1130340CF93DF93CDB7DEB780E696E028E0FC01DB
S1130350258380E696E028E0FC01218380E696E090
S113036024E0FC01228380EA99E025E0FC01268355
S113037080EA99E020EAFC01278380EA99E023E0FF
S1130380FC01258380EA99E028E1FC012483000034
S1130390DF91CF910895CF93DF931F92CDB7DEB74E
S11303A08983000080EA99E0FC018181882F90E034
S11303B080729927892BB1F380EA99E02981FC01A5
S11303C0208300000F90DF91CF910895F894FFCF20
S9030000FC
