S00D00006C61625F372E7372656352
S11300000C94FE000C9424010C9424010C942401FF
S11300100C9424010C9424010C9424010C942401C8
S11300200C9424010C9424010C9424010C942401B8
S11300300C9424010C9424010C9424010C942401A8
S11300400C9424010C9424010C9424010C94240198
S11300500C9424010C9424010C9424010C94240188
S11300600C9424010C9424010C9424010C94240178
S11300700C9424010C9424010C9424010C94240168
S11300800C9424010C9424010C9424010C94240158
S11300900C9424010C9424010C9424010C94240148
S11300A00C9424010C9424010C9424010C94240138
S11300B00C9424010C9424010C9424010C94240128
S11300C00C9424010C9424010C9424010C94240118
S11300D00C9424010C9424010C9424010C94240108
S11300E00C9424010C9424010C9424010C942401F8
S11300F00C9424010C9424010C9424010C942401E8
S11301000C9424010C9424010C9424010C942401D7
S11301100C9424010C9424010C9424010C94F403F5
S11301200C9424010C9424010C9424010C942401B7
S11301300C9424010C9424010C9424010C942401A7
S11301400C9424010C9424010C9424010C94240197
S11301500C9424010C9424010C9424010C94240187
S11301600C9424010C9424010C9424010C94240177
S11301700C9424010C9424010C9424010C94240167
S11301800C9424010C9424010C9424010C94240157
S11301900C9424010C9424010C9424010C94240147
S11301A00C9424010C9424010C9424010C94240137
S11301B00C9424010C9424010C9424010C94240127
S11301C00C9424010C9424010C9424010C94240117
S11301D00C9424010C9424010C9424010C94240107
S11301E00C9424010C9424010C9424010C942401F7
S11301F00C9424010C9424010C94240111241FBE9A
S1130200CFEFCDBFDFE3DEBF00E00CBF18BE19BEE9
S11302101ABE1BBE10E2A0E0B0E2E6EBFBE000E099
S11302200BBF02C007900D92A230B107D9F71BBED5
S113023020E2A2E0B0E201C01D92A530B207E1F7CE
S11302400E9426010C94D9050C940000CF93DF93EF
S1130250CDB7DEB72F97CDBFDEBF19821A821B82BE
S11302601C821D821E821F82188619861A861B868E
S11302700E9439030E948C030E947E030E94B403EF
S113028080E098E027E0FC0120838091022088230D
S1130290E1F380910320909104209923E4F4809168
S11302A003209091042091958195910980930320D6
S11302B09093042080EA99E02DE2FC012083000061
S11302C080EA99E0FC018181882F90E0807299276F
S11302D0892BB1F317C08091032090910420181644
S11302E0190684F480EA99E02BE2FC0120830000E3
S11302F080EA99E0FC018181882F90E0807299273F
S1130300892BB1F38091032090910420092E000CD5
S1130310AA0BBB0BBC01CD010E94E004DC01CB01A4
S113032028E638EE4FE95AE3BC01CD010E946C0582
S1130330DC01CB0128E638EE4FE15AE3BC01CD01E4
S11303400E944304DC01CB018C879D87AE87BF8765
S11303506C857D858E859F850E94AF04DC01CB0171
S1130360898380EA99E02981205DFC0120830000D3
S113037080EA99E0FC018181882F90E080729927BE
S1130380892BB1F380EA99E02EE2FC01208300007E
S113039080EA99E0FC018181882F90E0807299279E
S11303A0892BB1F38981882F90E0092E000CAA0BC8
S11303B0BB0BBC01CD010E94E004DC01CB019C011C
S11303C0AD016C857D858E859F850E944204DC018C
S11303D0CB0120E030E040E251E4BC01CD010E94B9
S11303E06C05DC01CB018C839D83AE83BF836C8160
S11303F07D818E819F810E94AF04DC01CB018A83C1
S113040080EA99E02A81205DFC012083000080EAD3
S113041099E0FC018181882F90E080729927892BD3
S1130420B1F38A81882F90E0092E000CAA0BBB0B34
S1130430BC01CD010E94E004DC01CB019C01AD01B3
S11304406C817D818E819F810E944204DC01CB01FD
S113045020E030E040E251E4BC01CD010E946C0593
S1130460DC01CB0188879987AA87BB876885798552
S11304708A859B850E94AF04DC01CB018B8380EAD3
S113048099E02B81205DFC012083000080EA99E043
S1130490FC018181882F90E080729927892BB1F328
S11304A080EA99E026E5FC012083000080EA99E0D7
S11304B0FC018181882F90E080729927892BB1F308
S11304C080EA99E020E2FC012083000080EA99E0C0
S11304D0FC018181882F90E080729927892BB1F3E8
S11304E080EA99E028E2FC012083000080EA99E098
S11304F0FC018181882F90E080729927892BB1F3C8
S113050080EA99E020E3FC012083000080EA99E07E
S1130510FC018181882F90E080729927892BB1F3A7
S113052080EA99E028E7FC012083000080EA99E052
S1130530FC018181882F90E080729927892BB1F387
S113054080910320909104208F70898389818A305F
S113055020F08981895C898303C08981805D8983D6
S11305608091032090910420807F8A838A818295E0
S11305708F708A838A818A3020F08A81895C8A8399
S113058003C08A81805D8A83809103209091042036
S1130590892F990F990B8B838B818A3020F08B8163
S11305A0895C8B8303C08B81805D8B8380EA99E0B7
S11305B02B81FC012083000080EA99E0FC01818109
S11305C0882F90E080729927892BB1F380EA99E013
S11305D02A81FC012083000080EA99E0FC018181EA
S11305E0882F90E080729927892BB1F380EA99E0F3
S11305F02981FC012083000080EA99E0FC018181CB
S1130600882F90E080729927892BB1F380EA99E0D2
S113061029E2FC012083000080EA99E0FC01818149
S1130620882F90E080729927892BB1F380EA99E0B2
S11306302DE0FC012083000080EA99E0FC01818127
S1130640882F90E080729927892BB1F380EA99E092
S11306502AE0FC012083000080EA99E0FC0181810A
S1130660882F90E080729927892BB1F31092022091
S11306700CCECF93DF93CDB7DEB780E096E022E4D3
S1130680FC01228380E092E020E1FC01218380E0F0
S113069092E020E3FC01228380E092E02BE0FC0165
S11306A020A380E092E027E0FC01248380E092E034
S11306B02AE0FC0121A380E092E022E0FC0122A3D5
S11306C080E092E021E0FC01238380E092E02CE0D2
S11306D032E0F9012081FC01248780E092E02DE0E2
S11306E032E0F9012081FC01258780E092E021E0DD
S11306F0FC0120830000DF91CF910895CF93DF9315
S1130700CDB7DEB780EA90E022E0FC012283789442
S11307100000DF91CF910895CF93DF9300D0CDB740
S1130720DEB781ED93E089839A838FE08B8380E049
S113073098E02B81422F50E029813A81240F351F04
S1130740FC0126A337A380E098E0FC0110A211A2CB
S113075080E891E020ECFC01208300002396CDBFCB
S1130760DEBFDF91CF910895CF93DF93CDB7DEB78E
S113077080E696E028E0FC01258380E696E028E008
S1130780FC01218380E696E024E0FC01228380EAD8
S113079099E020910020FC01268380EA99E02091D1
S11307A00120022E000C330B22953295307F322724
S11307B0207F3227422F20910020022E000C330B81
S11307C0232F330F330B242BFC01278380EA99E07A
S11307D023E3FC01258380EA99E028E1FC012483DA
S11307E00000DF91CF9108951F920F9200903F0077
S11307F00F921124009038000F921092380000904C
S11308003A000F9210923A0000903B000F9210921F
S11308103B002F933F938F939F93EF93FF93CF933B
S1130820DF93CDB7DEB780E092E0FC0185A1882F8D
S113083090E0382F222780E092E0FC0184A1882FE9
S113084090E0822B932B809303209093042081E0EB
S1130850809302200000DF91CF91FF91EF919F914F
S11308608F913F912F910F9000923B000F90009237
S11308703A000F90009238000F9000923F000F90C2
S11308801F9018955058BB27AA270E945A040C940D
S113089032050E94240538F00E942B0520F039F41B
S11308A09F3F19F426F40C9421050EF4E095E7FB20
S11308B00C941B05E92F0E94430558F3BA176207ED
S11308C073078407950720F079F4A6F50C94650561
S11308D00EF4E0950B2EBA2FA02D0B01B901900157
S11308E00C01CA01A0011124FF27591B99F0593F9B
S11308F050F4503E68F11A16F040A22F232F342FE3
S11309004427585FF3CF469537952795A795F04030
S11309105395C9F77EF41F16BA0B620B730B840B45
S1130920BAF09150A1F0FF0FBB1F661F771F881FFD
S1130930C2F70EC0BA0F621F731F841F48F4879555
S113094077956795B795F7959E3F08F0B0CF939547
S1130950880F08F09927EE0F9795879508950E94C0
S11309604B0588F09F5798F0B92F9927B751B0F0ED
S1130970E1F0660F771F881F991F1AF0BA95C9F71F
S113098014C0B13091F00E946505B1E008950C9453
S11309906505672F782F8827B85F39F0B93FCCF306
S11309A0869577956795B395D9F73EF4909580959C
S11309B0709561957F4F8F4F9F4F0895E89409C0BC
S11309C097FB3EF490958095709561957F4F8F4F7E
S11309D09F4F9923A9F0F92F96E9BB279395F69594
S11309E0879577956795B795F111F8CFFAF4BB0F12
S11309F011F460FF1BC06F5F7F4F8F4F9F4F16C076
S1130A00882311F096E911C0772321F09EE8872FFF
S1130A10762F05C0662371F096E8862F70E060E0BB
S1130A202AF09A95660F771F881FDAF7880F969534
S1130A30879597F9089597F99F6780E870E060E0DB
S1130A4008959FEF80EC089500240A941616170663
S1130A5018060906089500240A94121613061406AB
S1130A6005060895092E0394000C11F4882352F00E
S1130A70BB0F40F4BF2B11F460FF04C06F5F7F4FC6
S1130A808F4F9F4F089557FD9058440F551F59F0AD
S1130A905F3F71F04795880F97FB991F61F09F3F67
S1130AA079F087950895121613061406551FF2CF90
S1130AB04695F1DF08C0161617061806991FF1CFE0
S1130AC086957105610508940895E894BB27662707
S1130AD07727CB0197F908950E947F050C9432057E
S1130AE00E94240538F00E942B0520F0952311F074
S1130AF00C941B050C94210511240C9466050E948A
S1130B00430570F3959FC1F3950F50E0551F629F05
S1130B10F001729FBB27F00DB11D639FAA27F00D52
S1130B20B11DAA1F649F6627B00DA11D661F829F79
S1130B302227B00DA11D621F739FB00DA11D621F5E
S1130B40839FA00D611D221F749F3327A00D611D7B
S1130B50231F849F600D211D822F762F6A2F11245D
S1130B609F5750409AF0F1F088234AF0EE0FFF1F90
S1130B70BB1F661F771F881F91505040A9F79E3FE7
S1130B80510580F00C941B050C9466055F3FE4F35B
S1130B90983ED4F3869577956795B795F795E7953D
S1130BA09F5FC1F7FE2B880F911D9695879597F946
S1090BB00895F894FFCF44
S1050BB605FA3A
S9030000FC
