:100000000C94FE000C9424010C9424010C94240103
:100010000C9424010C9424010C9424010C942401CC
:100020000C9424010C9424010C9424010C942401BC
:100030000C9424010C9424010C9424010C942401AC
:100040000C9424010C9424010C9424010C9424019C
:100050000C9424010C9424010C9424010C9424018C
:100060000C9424010C9424010C9424010C9424017C
:100070000C9424010C9424010C9424010C9424016C
:100080000C9424010C9424010C9424010C9424015C
:100090000C9424010C9424010C9424010C9424014C
:1000A0000C9424010C9424010C9424010C9424013C
:1000B0000C9424010C9424010C9424010C9424012C
:1000C0000C9424010C9424010C9424010C9424011C
:1000D0000C9424010C9424010C9424010C9424010C
:1000E0000C9424010C9424010C9424010C942401FC
:1000F0000C9424010C9424010C9424010C942401EC
:100100000C9424010C9424010C9424010C942401DB
:100110000C9424010C9424010C9424010C942902C5
:100120000C9424010C9424010C9424010C942401BB
:100130000C9424010C9424010C9424010C942401AB
:100140000C9424010C9424010C9424010C9424019B
:100150000C9424010C9424010C9424010C9424018B
:100160000C9477020C9424010C9424010C94240127
:100170000C9424010C9424010C9424010C9424016B
:100180000C9424010C9424010C9424010C9424015B
:100190000C9424010C9424010C9424010C9424014B
:1001A0000C9424010C9424010C9424010C9424013B
:1001B0000C9424010C9424010C9424010C9424012B
:1001C0000C9424010C9424010C9424010C9424011B
:1001D0000C9424010C9424010C9424010C9424010B
:1001E0000C9424010C9424010C9424010C942401FB
:1001F0000C9424010C9424010C94240111241FBE9E
:10020000CFEFCDBFDFE3DEBF00E00CBF18BE19BEED
:100210001ABE1BBE10E2A0E0B0E2E4EBF5E000E0A5
:100220000BBF02C007900D92A230B107D9F71BBED9
:1002300020E2A2E0B0E201C01D92A730B207E1F7D0
:100240000E9426010C94D8020C940000CF93DF93F7
:100250001F921F92CDB7DEB719821A820E946C01DD
:100260000E94BF010E94B1010E94E60180E098E077
:1002700025E0FC012083809103208823E1F380E0C6
:1002800092E0FC0185A1898380E092E0FC0184A1D9
:100290008A8380EA99E02A81FC012083000080EAB9
:1002A00099E0FC018181882F90E080729927892B49
:1002B000B1F380EA99E02981FC012083000080EA03
:1002C00099E0FC018181882F90E080729927892B29
:1002D000B1F310920320CFCFCF93DF93CDB7DEB72A
:1002E00080E096E022E7FC01228380E092E020E1BA
:1002F000FC01218380E092E020E3FC01228380E086
:1003000092E02BE0FC0120A380E092E027E0FC01DA
:10031000248380E092E02AE0FC0121A380E092E0C7
:1003200022E0FC0122A380E092E021E0FC01238393
:1003300080E092E02CE032E0F9012081FC0124878A
:1003400080E092E02DE032E0F9012081FC01258778
:1003500080E092E021E0FC0120830000DF91CF915A
:100360000895CF93DF93CDB7DEB780EA90E022E027
:10037000FC01228378940000DF91CF910895CF9300
:10038000DF9300D0CDB7DEB783E790E089839A830F
:100390001B8280E098E02B81422F50E029813A8136
:1003A000240F351FFC0126A337A380E098E0FC0151
:1003B00010A211A280E891E020ECFC012083000053
:1003C0002396CDBFDEBFDF91CF910895CF93DF930A
:1003D000CDB7DEB780E696E028E0FC01258380E615
:1003E00096E028E0FC01218380E696E024E0FC0111
:1003F000228380EA99E020910020FC01268380EA94
:1004000099E020910120022E000C330B22953295A9
:10041000307F3227207F3227322F209100202595F0
:10042000259525952595232BFC01278380EA99E0C6
:1004300023E3FC01258380EA99E028E1FC01248381
:1004400080EA99E020E2FC0123830000DF91CF9154
:1004500008951F920F9200903F000F921124009078
:1004600038000F921092380000903A000F921092CC
:100470003A0000903B000F9210923B002F933F9365
:100480008F939F93EF93FF93CF93DF93CDB7DEB717
:1004900080E092E0FC0185A1882F90E0382F222790
:1004A00080E092E0FC0184A1882F90E0822B932BC6
:1004B000809305209093062081E080930320000024
:1004C000DF91CF91FF91EF919F918F913F912F916C
:1004D0000F9000923B000F9000923A000F90009214
:1004E00038000F9000923F000F901F9018951F92B8
:1004F0000F9200903F000F921124009038000F924D
:100500001092380000903A000F9210923A0000903A
:100510003B000F9210923B002F933F938F939F933A
:10052000EF93FF93CF93DF931F92CDB7DEB780EAAF
:1005300099E0FC01808189838981863479F480E0A7
:1005400092E028E2FC0121A380E092E020E032E08A
:10055000F90120812260FC01208311C089818C3443
:1005600071F480E092E02AE0FC0121A380E092E0B7
:1005700020E032E0F90120812260FC0120830000AC
:100580000F90DF91CF91FF91EF919F918F913F91CC
:100590002F910F9000923B000F9000923A000F9025
:1005A000009238000F9000923F000F901F90189516
:0405B000F894FFCFED
:0205B40005FA46
:00000001FF
